:100000000C9461000C947E000C947E000C947E0095
:100010000C947E000C947E000C947E000C947E0068
:100020000C947E000C947E000C947E000C947E0058
:100030000C947E000C947E000C947E000C947E0048
:100040000C940E030C947E000C947E000C947E00A5
:100050000C947E000C947E000C947E000C947E0028
:100060000C947E000C947E00000000080002010049
:100070000003040700000000000000000102040863
:100080001020408001020408102001020408102002
:10009000040404040404040402020202020203032E
:1000A00003030303000000002300260029000000D2
:1000B0000000250028002B0000000000240027007D
:1000C0002A0011241FBECFEFD8E0DEBFCDBF11E064
:1000D000A0E0B1E0E4E6F9E002C005900D92A230A4
:1000E000B107D9F721E0A2E0B1E001C01D92AF3124
:1000F000B207E1F70E94A0040C94B0040C94000035
:1001000062E08CE00E94070461E081E00E94070445
:1001100061E082E00E94070461E083E00E9407043E
:1001200061E084E00E94070461E085E00E9407042A
:1001300061E086E00E94070461E087E00C94070418
:10014000CF93C1E061E08C2F0E94400460E087E023
:100150000E944004CF5FC730A9F760910001709101
:100160000101882777FD8095982FCF910C947B0310
:1001700060E081E00E94400461E082E00E9440046F
:1001800061E083E00E94400460E084E00E9440045B
:1001900060E085E00E94400460E086E00E94400448
:1001A00060E087E00E9440046091000170910101CD
:1001B000882777FD8095982F0C947B0361E081E080
:1001C0000E94400461E082E00E94400460E083E01D
:1001D0000E94400461E084E00E94400461E085E008
:1001E0000E94400460E086E00E94400461E087E0F5
:1001F0000E9440046091000170910101882777FD01
:100200008095982F0C947B0361E081E00E9440046C
:1002100061E082E00E94400461E083E00E944004CB
:1002200061E084E00E94400460E085E00E944004B8
:1002300060E086E00E94400461E087E00E944004A4
:100240006091000170910101882777FD8095982FBA
:100250000C947B0360E081E00E94400461E082E056
:100260000E94400461E083E00E94400460E084E07A
:100270000E94400460E085E00E94400461E086E066
:100280000E94400461E087E00E9440046091000108
:1002900070910101882777FD8095982F0C947B033E
:1002A00061E081E00E94400460E082E00E9440043E
:1002B00061E083E00E94400461E084E00E94400429
:1002C00060E085E00E94400461E086E00E94400416
:1002D00061E087E00E94400460910001709101019B
:1002E000882777FD8095982F0C947B0361E081E04F
:1002F0000E94400460E082E00E94400461E083E0EC
:100300000E94400461E084E00E94400461E085E0D6
:100310000E94400461E086E00E94400461E087E0C2
:100320000E9440046091000170910101882777FDCF
:100330008095982F0C947B0361E081E00E9440043B
:1003400061E082E00E94400461E083E00E9440049A
:1003500060E084E00E94400460E085E00E94400488
:1003600060E086E00E94400460E087E00E94400474
:100370006091000170910101882777FD8095982F89
:100380000C947B0361E081E00E94400461E082E024
:100390000E94400461E083E00E94400461E084E048
:1003A0000E94400461E085E00E94400461E086E034
:1003B0000E94400461E087E00E94400460910001D7
:1003C00070910101882777FD8095982F0C947B030D
:1003D00061E081E00E94400461E082E00E9440040C
:1003E00061E083E00E94400461E084E00E944004F8
:1003F00060E085E00E94400461E086E00E944004E5
:1004000061E087E00E944004609100017091010169
:10041000882777FD8095982F0C947B03CF93DF93EB
:100420008CE00E947604892B31F481E090E0909377
:10043000150180931401C1E0D0E0809114019091E6
:100440001501892B81F00E94A0008CE00E947604A7
:10045000892B99F7D0931301C093120110921501C3
:1004600010921401EACFC1E0D0E080911201909186
:100470001301892B81F00E94B8008CE00E94760461
:10048000892B99F7D0931101C09310011092130199
:1004900010921201EACFC1E0D0E08091100190915A
:1004A0001101892B81F00E94DE008CE00E9476040D
:1004B000892B99F7D0930F01C0930E01109211016F
:1004C00010921001EACFC1E0D0E080910E0190912E
:1004D0000F01892B81F00E9404018CE00E947604B8
:1004E000892B99F7D0930D01C0930C0110920F0145
:1004F00010920E01EACFC1E0D0E080910C01909102
:100500000D01892B81F00E942A018CE00E94760463
:10051000892B99F7D0930B01C0930A0110920D011A
:1005200010920C01EACFC1E0D0E080910A019091D5
:100530000B01892B81F00E9450018CE00E9476040F
:10054000892B99F7D0930901C093080110920B01F0
:1005500010920A01EACFC1E0D0E0809108019091A9
:100560000901892B81F00E9476018CE00E947604BB
:10057000892B99F7D0930701C093060110920901C6
:1005800010920801EACFC1E0D0E08091060190917D
:100590000701892B81F00E949C018CE00E94760467
:1005A000892B99F7D0930501C0930401109207019C
:1005B00010920601EACFC1E0D0E080910401909151
:1005C0000501892B81F00E94C2018CE00E94760413
:1005D000892B99F7D0930301C09302011092050172
:1005E00010920401EACFC1E0D0E080910201909125
:1005F0000301892B81F00E94E8018CE00E947604BF
:10060000892B99F7D0931501C0931401109203011F
:1006100010920201EACFDF91CF9108951F920F92BD
:100620000FB60F9211242F933F938F939F93AF9305
:10063000BF938091170190911801A0911901B09179
:100640001A013091160123E0230F2D3720F4019673
:10065000A11DB11D05C026E8230F0296A11DB11DE5
:10066000209316018093170190931801A09319010C
:10067000B0931A0180911B0190911C01A0911D0162
:10068000B0911E010196A11DB11D80931B01909395
:100690001C01A0931D01B0931E01BF91AF919F91CA
:1006A0008F913F912F910F900FBE0F901F90189533
:1006B0003FB7F89480911B0190911C01A0911D01FE
:1006C000B0911E0126B5A89B05C02F3F19F00196D9
:1006D000A11DB11D3FBF6627782F892F9A2F620F6A
:1006E000711D811D911D42E0660F771F881F991FA4
:1006F0004A95D1F70895CF92DF92EF92FF92CF9370
:10070000DF936B017C010E945803EB01C114D104FB
:10071000E104F10489F00E94AF040E9458036C1BAD
:100720007D0B683E734090F381E0C81AD108E10860
:10073000F108C851DC4FEACFDF91CF91FF90EF90E5
:10074000DF90CF900895789484B5826084BD84B59D
:10075000816084BD85B5826085BD85B5816085BDBC
:10076000EEE6F0E0808181608083E1E8F0E01082D5
:10077000808182608083808181608083E0E8F0E016
:10078000808181608083E1EBF0E080818460808300
:10079000E0EBF0E0808181608083EAE7F0E0808137
:1007A0008460808380818260808380818160808397
:1007B0008081806880831092C1000895833081F029
:1007C00028F4813099F08230A1F008958730A9F0A3
:1007D0008830B9F08430D1F4809180008F7D03C0DF
:1007E000809180008F7780938000089584B58F7703
:1007F00002C084B58F7D84BD08958091B0008F774D
:1008000003C08091B0008F7D8093B0000895CF9396
:10081000DF9390E0FC01E458FF4F2491FC01E05786
:10082000FF4F8491882349F190E0880F991FFC01C4
:10083000E854FF4FA591B49182559F4FFC01C5919B
:10084000D4919FB7611108C0F8948C9120958223B0
:100850008C93888182230AC0623051F4F8948C9181
:10086000322F309583238C938881822B888304C018
:10087000F8948C91822B8C939FBFDF91CF91089538
:100880000F931F93CF93DF931F92CDB7DEB7282F1F
:1008900030E0F901E859FF4F8491F901E458FF4F26
:1008A0001491F901E057FF4F04910023C9F0882308
:1008B00021F069830E94DE036981E02FF0E0EE0FF2
:1008C000FF1FE255FF4FA591B4919FB7F8948C910B
:1008D000611103C01095812301C0812B8C939FBFB0
:1008E0000F90DF91CF911F910F910895CF93DF93D8
:1008F000282F30E0F901E859FF4F8491F901E458BD
:10090000FF4FD491F901E057FF4FC491CC2391F0F0
:1009100081110E94DE03EC2FF0E0EE0FFF1FEC557B
:10092000FF4FA591B4912C912D2381E090E021F40B
:1009300080E002C080E090E0DF91CF9108950895BB
:100940000E94A3030E949F040E948000C0E0D0E0A8
:100950000E940E022097E1F30E940000F9CF089553
:04096000F894FFCF39
:02096400C800C9
:00000001FF
